:100000000C945F000C9487000C9487000C9487007C
:100010000C9487000C9487000C9487000C94E502E4
:100020000C9487000C9487000C9487000C94870034
:100030000C9487000C9487000C9487000C94870024
:100040000C9451030C9487000C94F5010C94270236
:100050000C9487000C9487000C9487000C94870004
:100060000C9487000C948700020000000800020135
:10007000000003040700000000000000000102046B
:10008000081020408001020408102001020408101A
:100090002004040404040404040202020202020311
:1000A000030303030300000000250028002B0000C9
:1000B000000000240027002A0000AA005702112493
:1000C0001FBECFEFD8E0DEBFCDBF11E0A0E0B1E0B2
:1000D000EEEEF9E002C005900D92A231B107D9F71A
:1000E00021E0A2E1B1E001C01D92A13CB207E1F71D
:1000F00010E0CFE5D0E004C02197FE010E94EF049C
:10010000CD35D107C9F70E9442030C94F5040C9435
:10011000000082E191E00E94AF0026E040E855E255
:1001200060E070E084E191E00C94950182E191E05F
:100130000E94B40068EE73E080E090E00E94C0038B
:1001400082E191E00E94C00068EE73E080E090E000
:100150000C94C0036DE082E191E00C94CB0061E06F
:10016000FC0180810C946004CF93DF93EC0161E08B
:1001700088810E949C0481E08983DF91CF9108955A
:10018000CF93DF93EC0160E088810E949C04198288
:10019000DF91CF910895FC0160830C94C000FC01B5
:1001A000918D228D892F90E0805C9F4F821B910959
:1001B0008F7399270895FC01918D828D981731F0E6
:1001C000828DE80FF11D858D90E008958FEF9FEFF0
:1001D0000895FC01918D828D981761F0828DDF0169
:1001E000A80FB11D5D968C91928D9F5F9F73928F2A
:1001F00090E008958FEF9FEF08958DE492E0892BB2
:1002000049F080E090E0892B29F00E944D02811195
:100210000C9400000895FC01848DDF01A80FB11D2E
:10022000A35ABF4F2C91848D90E001968F7399272C
:10023000848FA689B7892C93A089B1898C91806419
:100240008C93938D848D981306C00288F389E02DDA
:1002500080818F7D80830895CF93DF93EC01888D1B
:100260008823C9F0EA89FB89808185FD05C0A889BA
:10027000B9898C9186FD0FC00FB607FCF5CF808140
:1002800085FFF2CFA889B9898C9185FFEDCFCE018A
:100290000E940B01E7CFDF91CF910895EF92FF927B
:1002A0000F931F93CF93DF93EC0181E0888F9B8D99
:1002B0008C8D981305C0E889F989808185FD24C05B
:1002C000F62E0B8D10E00F5F1F4F0F731127E02EDE
:1002D0008C8DE8120CC00FB607FCFACFE889F989BB
:1002E000808185FFF5CFCE010E940B01F1CF8B8D70
:1002F000FE01E80FF11DE35AFF4FF0820B8FEA89F0
:10030000FB898081806207C0EE89FF896083E8896C
:10031000F98980818064808381E090E0DF91CF91D2
:100320001F910F91FF90EF900895CF92DF92EF927F
:10033000FF921F93CF93DF93EC016A017B01122F91
:1003400060E874E88EE190E0A70196010E94CD0478
:10035000DA01C9010197A109B109B695A795979549
:100360008795AC01E889F98982E08083411580E1B5
:100370005807A8F0E889F989108260E472E48FE0F8
:1003800090E0A70196010E94CD04BA01A901415055
:100390005109610971097695679557954795EC85DF
:1003A000FD855083EE85FF854083188EEC89FD899D
:1003B0001083EA89FB89808180618083EA89FB89D7
:1003C000808188608083EA89FB898081806880835E
:1003D000EA89FB8980818F7D8083DF91CF911F9196
:1003E000FF90EF90DF90CF9008951F920F920FB67D
:1003F0000F9211242F938F939F93EF93FF93E0918C
:100400002401F09125018081E0912A01F0912B01D6
:1004100082FD12C0908180912D018F5F8F7320919A
:100420002E01821751F0E0912D01F0E0EC5EFE4FBD
:10043000958F80932D0101C08081FF91EF919F9155
:100440008F912F910F900FBE0F901F9018951F92B4
:100450000F920FB60F9211242F933F934F935F93F8
:100460006F937F938F939F93AF93BF93EF93FF937C
:1004700084E191E00E940B01FF91EF91BF91AF9158
:100480009F918F917F916F915F914F913F912F91AC
:100490000F900FBE0F901F90189584E191E00E947D
:1004A000CF0021E0892B09F420E0822F0895E4E1B8
:1004B000F1E01382128288EE93E0A0E0B0E0848342
:1004C0009583A683B78385E091E09183808385EC53
:1004D00090E09587848784EC90E09787868780EC0E
:1004E00090E0918B808B81EC90E0938B828B82ECFF
:1004F00090E0958B848B86EC90E0978B868B118EA9
:10050000128E138E148E0895CF92DF92EF92FF9287
:100510000F931F93CF93DF936C017A018B01C0E09F
:10052000D0E0CE15DF0589F0D8016D918D01D6019F
:10053000ED91FC910190F081E02DC6010995892B88
:1005400011F47E0102C02196ECCFC701DF91CF915B
:100550001F910F91FF90EF90DF90CF900895813021
:1005600039F018F0823051F0089510926E0008951D
:1005700080916F008D7F80936F000895809170004F
:100580008D7F8093700081E08093B0008091B100F6
:10059000887F84608093B1001092B3000895CF9358
:1005A000C82F809100018C1307C0E8E6F0E0E491C9
:1005B0008FEF8093000101C0EFEF8E2F0E94AF02FA
:1005C00060E08C2FCF910C949C041F920F920FB679
:1005D0000F9211242F933F934F935F936F937F93C9
:1005E0008F939F93AF93BF93EF93FF938091B40149
:1005F0009091B501A091B601B091B701892B8A2BDA
:100600008B2B51F18091B101E091B201F091B301D6
:100610009081892780838091B4019091B501A09148
:10062000B601B091B701181619061A061B06C4F4D4
:100630008091B4019091B501A091B601B091B7013C
:100640000197A109B1098093B4019093B501A093DA
:10065000B601B093B70104C0809100010E94CF029F
:10066000FF91EF91BF91AF919F918F917F916F918A
:100670005F914F913F912F910F900FBE0F901F9060
:10068000189508950E94FC030E9441030E9489006E
:10069000CDEFD0E00E9496002097E1F30E94FD008C
:1006A000F9CF1F920F920FB60F9211242F933F9301
:1006B0008F939F93AF93BF938091B9019091BA01AB
:1006C000A091BB01B091BC013091B80126E0230F8D
:1006D0002D3720F40296A11DB11D05C029E8230F76
:1006E0000396A11DB11D2093B8018093B901909389
:1006F000BA01A093BB01B093BC018091BD01909160
:10070000BE01A091BF01B091C0010196A11DB11D14
:100710008093BD019093BE01A093BF01B093C0012F
:10072000BF91AF919F918F913F912F910F900FBEED
:100730000F901F9018953FB7F8948091BD0190914C
:10074000BE01A091BF01B091C00126B5A89B05C014
:100750002F3F19F00196A11DB11D3FBFBA2FA92F40
:10076000982F8827820F911DA11DB11DBC01CD01BD
:1007700043E0660F771F881F991F4A95D1F70895A8
:100780008F929F92AF92BF92CF92DF92EF92FF92A1
:100790006B017C010E949B034B015C01C114D104DD
:1007A000E104F10401F10E94CC040E949B03DC01EE
:1007B000CB0188199909AA09BB09883E9340A10574
:1007C000B10560F321E0C21AD108E108F10888EE12
:1007D000880E83E0981EA11CB11CC114D104E10451
:1007E000F10419F7DBCFFF90EF90DF90CF90BF902F
:1007F000AF909F908F900895789484B5826084BD67
:1008000084B5816084BD85B5826085BD85B5816014
:1008100085BDEEE6F0E0808181608083E1E8F0E074
:100820001082808182608083808181608083E0E8A3
:10083000F0E0808181608083E1EBF0E08081846082
:100840008083E0EBF0E0808181608083EAE7F0E084
:1008500080818460808380818260808380818E7FBC
:1008600080838081806880831092C10008958330E6
:1008700081F028F4813099F08230A1F0089587301A
:10088000A9F08830B9F08430D1F4809180008F7D58
:1008900003C0809180008F7780938000089584B595
:1008A0008F7702C084B58F7D84BD08958091B0009C
:1008B0008F7703C08091B0008F7D8093B000089542
:1008C000CF93DF9390E0FC01E358FF4F2491FC01AC
:1008D000EF56FF4F8491882361F190E0880F991FB4
:1008E000FC01E155FF4FC591D491FC01EB55FF4F41
:1008F000A591B491611109C09FB7F89488812095A2
:1009000082238883EC912E230BC0623061F49FB761
:10091000F8943881822F809583238883EC912E2B45
:100920002C939FBF06C08FB7F894E8812E2B2883A5
:100930008FBFDF91CF9108951F93CF93DF93282F1F
:1009400030E0F901E759FF4F8491F901E358FF4F77
:10095000D491F901EF56FF4FC491CC23C9F0162F63
:1009600081110E943704EC2FF0E0EE0FFF1FEB55D2
:10097000FF4FA591B4918FB7F894111105C09C91C8
:10098000ED2FE095E92302C0EC91ED2BEC938FBFA6
:10099000DF91CF911F9108950895A1E21A2EAA1B0D
:1009A000BB1BFD010DC0AA1FBB1FEE1FFF1FA2171F
:1009B000B307E407F50720F0A21BB30BE40BF50B1C
:1009C000661F771F881F991F1A9469F760957095A5
:1009D000809590959B01AC01BD01CF010895EE0F6C
:0E09E000FF1F0590F491E02D0994F894FFCFCD
:1009EE00FF000000004E018402CF00E900DB002C66
:0209FE000100F6
:00000001FF
