:100000000C945F010C9487010C9487010C94870178
:100010000C9487010C9487010C9487010C94870140
:100020000C9487010C9487010C9487010C94870130
:100030000C9487010C9487010C9487010C94870120
:100040000C94E0070C9487010C941B030C94F502AC
:100050000C9487010C9487010C9487010C94870100
:100060000C9487010C94870100407A10F35A00A089
:10007000724E18090010A5D4E80000E87648170071
:1000800000E40B54020000CA9A3B000000E1F505B1
:10009000000080969800000040420F000000A086FB
:1000A00001000000102700000000E803000000002D
:1000B0006400000000000A000000000001000000D1
:1000C00000002C76D888DC674F0823DFC1DFAE59EB
:1000D000E1B1B796E5E3E453C63AE651997696E87E
:1000E000E6C28426EB898C9B62ED407C6FFCEFBC02
:1000F0009C9F40F2BAA56FA5F490055A2AF75C932D
:100100006B6CF9676DC11BFCE0E40D47FEF520E662
:10011000B500D0ED902E0300943577050080841E45
:10012000080000204E0A000000C80C333333330FA0
:10013000986E12831141EF8D2114893BE65516CF3D
:10014000FEE6DB18D1844B381BF77C1D901DA4BB49
:10015000E424203284725E228100C9F124ECA1E5FE
:100160003D2700000000230026002900005EBCE2BD
:10017000613FDD83C29C7E20A3FD1F419DC3217F83
:10018000FCA2401E5F01E3BD3E6082DC237D9FC177
:10019000421CFEA0E1BF5D0380DE3C62BEE0025C6B
:1001A000DF81633D7C22C09E1D43A1FF4618FAA457
:1001B00027799BC584DA3866E5BB5907DB85673943
:1001C000BAE406581947A5FB7826C49A653BD98737
:1001D000045AB8E6A7F91B45C6987A24F8A6441A2B
:1001E00099C7257B3A6486D85B05E7B98CD2306E17
:1001F000EDB3510F4E10F2AC2F7193CD114FADF303
:10020000702ECC92D38D6F31B2EC0E50AFF1134DF6
:10021000CE90722C6D33D18F0C52B0EE326C8ED0EA
:10022000530DEFB1F0AE4C1291CF2D73CA947628D6
:10023000ABF517490856B4EA6937D58B5709EBB5C2
:1002400036688AD495CB2977F4AA4816E9B7550BB6
:1002500088D6346A2B7597C94A14F6A8742AC896AA
:10026000154BA9F7B6E80A54D7896B350000000092
:10027000240027002A0000000000250028002B0091
:10028000040404040404040402020202020203033C
:100290000303030301020408102040800102040844
:1002A00010200102040810200000000800020100D4
:1002B000000304070000000000000000560B11249A
:1002C0001FBECFEFD8E0DEBFCDBF22E0A6E7B1E092
:1002D00001C01D92A23AB207E1F711E0A0E0B1E03F
:1002E000E8EEF3E202C005900D92A637B107D9F708
:1002F00011E0CFE5D1E004C02197FE010E94E00F9C
:10030000CE35D107C9F70E942A080C94F2110C943B
:100310000000CF92DF92EF92FF920F931F93CF9343
:10032000DF936C017A018B01C0E0D0E0CE15DF05D0
:1003300089F0D8016D918D01D601ED91FC9101906C
:10034000F081E02DC6010995892B11F47E0102C0D0
:100350002196ECCFC701DF91CF911F910F91FF90B4
:10036000EF90DF90CF900895089580E090E0089599
:10037000FC01538D448D252F30E0842F90E0821BAB
:10038000930B541710F0CF96089501970895FC0130
:10039000918D828D981761F0828DDF01A80FB11DBC
:1003A0005D968C91928D9F5F9F73928F90E00895E0
:1003B0008FEF9FEF0895FC01918D828D981731F09A
:1003C000828DE80FF11D858D90E008958FEF9FEFEE
:1003D0000895FC01918D228D892F90E0805C9F4FC4
:1003E000821B91098F739927089587E791E00E94F6
:1003F000E90121E0892B09F420E0822F0895FC0116
:10040000848DDF01A80FB11DA35ABF4F2C91848D9D
:1004100090E001968F739927848FA689B7892C93D2
:10042000A089B1898C9180648C93938D848D98136D
:1004300006C00288F389E02D80818F7D8083089536
:10044000EF92FF920F931F93CF93DF93EC0181E024
:10045000888F9B8D8C8D981305C0E889F9898081E0
:1004600085FD24C0F62E0B8D10E00F5F1F4F0F731C
:100470001127E02E8C8DE8120CC00FB607FCFACFC6
:10048000E889F989808185FFF5CFCE010E94FF01BF
:10049000F1CF8B8DFE01E80FF11DE35AFF4FF08283
:1004A0000B8FEA89FB898081806207C0EE89FF8912
:1004B0006083E889F98980818064808381E090E0AD
:1004C000DF91CF911F910F91FF90EF900895CF93FF
:1004D000DF93EC01888D8823C9F0EA89FB8980814C
:1004E00085FD05C0A889B9898C9186FD0FC00FB61E
:1004F00007FCF5CF808185FFF2CFA889B9898C915F
:1005000085FFEDCFCE010E94FF01E7CFDF91CF91B4
:10051000089580E090E0892B29F00E94F501811177
:100520000C94000008950895DC01E0E0615038F07B
:100530008D91E827F0E0E459FE4FE491F7CF8E2F3C
:1005400008950E94DD110F931F93CF93DF93EC0169
:1005500088819981009729F02A813B8126173707E6
:1005600088F48B016F5F7F4F0E941311009761F039
:10057000998388831B830A832C813D81232B11F46B
:10058000FC01108281E001C080E0DF91CF911F91DA
:100590000F910895CF92DF92EF92FF920F931F93E6
:1005A000CF93DF931F92CDB7DEB78C01F62E65E5B2
:1005B00079830E94C205CF2C7981D72E760188E0FD
:1005C000E80EF11CF60161916F01C8010E94C2059D
:1005D000CE14DF04B9F70F90DF91CF911F910F91E7
:1005E000FF90EF90DF90CF9008951F920F920FB67B
:1005F0000F9211242F933F934F935F936F937F93A9
:100600008F939F93AF93BF93EF93FF9387E791E00F
:100610000E94FF01FF91EF91BF91AF919F918F9148
:100620007F916F915F914F913F912F910F900FBEEE
:100630000F901F9018951F920F920FB60F921124D2
:100640002F938F939F93EF93FF93E0918701F09106
:1006500088018081E0918D01F0918E0182FD12C0B0
:100660009081809190018F5F8F732091910182170B
:1006700051F0E0919001F0E0E958FE4F958F8093A2
:10068000900101C08081FF91EF919F918F912F91F7
:100690000F900FBE0F901F901895FC019081018064
:1006A000F281E02DF8948181892B81832281892F29
:1006B000809528232283A7E0B0E01197F1F72181EC
:1006C00082238183A3E2B0E01197F1F780817894CF
:1006D000EFECF0E03197F1F7982381E009F480E046
:1006E0000895FC0190810180F281E02D892F809591
:1006F00060FF12C0F8942281822382838181892B3A
:100700008183A3E2B0E01197F1F78281982B928365
:10071000789487ED90E011C0F8942281822382833F
:100720008181892B8183AFEFB0E01197F1F782814E
:10073000982B928378948FE090E00197F1F70895D9
:10074000FC0190810180F281E02DF8948181292FB4
:1007500020958223818378948DE743E050E0815097
:1007600021F1DA011197F1F730813923C1F3F894BF
:100770008281822382838181892B81837894ABE774
:10078000B7E01197F1F7F894818128232183A3E141
:10079000B1E01197F1F78081982381E009F080E0C2
:1007A0007894E3E6F6E03197F1F708956F927F923F
:1007B0008F929F92AF92BF92CF92DF92EF92FF9271
:1007C0000F931F93CF93DF9300D0CDB7DEB78C018B
:1007D0007A01FC018581968169837A830E94A00356
:1007E00069817A81882389F1F801858196810E9447
:1007F000CA026EEBF801858196810E94C20537011D
:100800005701F9E0AF0EB11CF8018580968088E0B1
:10081000C82ED12CEE24E394F12CC4010E944D0388
:100820008111FE28EE0CF1E0CF1AD108B1F7F301E7
:10083000F1923F01EA15FB0539F7F80185819681B0
:100840000E94A00391E0813009F090E0892F0F9081
:100850000F90DF91CF911F910F91FF90EF90DF905C
:10086000CF90BF90AF909F908F907F906F900895A2
:10087000CF93DF93CDB7DEB729970FB6F894DEBFDD
:100880000FBECDBFFB012081203119F1AE014F5FBA
:100890005F4F0E94D603882379F068E0CE0101966D
:1008A0000E9494029985891307C008C0803458F0CB
:1008B0008F3569F08F3769F080E00CC08D818F3300
:1008C000A9F78AE007C08F31B9F789E003C08BE050
:1008D00001C08CE029960FB6F894DEBF0FBECDBFE5
:1008E000DF91CF910895EF92FF920F931F93CF93D3
:1008F000DF93CDB7DEB761970FB6F894DEBF0FBEBA
:10090000CDBF8C01DC011596ED91FC9116971386F5
:1009100015861486DF011B9633961E92AE17BF070D
:10092000E1F7F8011482FF24F394BE01665F7F4F64
:10093000D80115968D919C9116970E94F1058823F8
:1009400009F457C067E0CE010A960E949402998983
:100950008913EBCFD8018C91811125C015968D910B
:100960009C9116970E94A003BE01665F7F4FF8011D
:10097000858196810E94CA0264EBD80115968D91FB
:100980009C9116970E94C205F801858196810E946C
:100990004D03E82ED80115968D919C9116970E94D3
:1009A000A003EE2019F1AE014F5F5F4FBE01665FFD
:1009B0007F4FC8010E94D603F801E180BE01665F47
:1009C0007F4FC8010E9438048E1520F4D80111967B
:1009D0008C9106C0BE01665F7F4FC8010E9438043B
:1009E000F801818384818F5F84839FCFF801F08237
:1009F000DACF61960FB6F894DEBF0FBECDBFDF91A0
:100A0000CF911F910F91FF90EF9008950F931F9337
:100A1000CF93DF93EC01162F60E0812F0E946A07CD
:100A2000612F70E0FB01EC56FD4FE491E883FB0180
:100A3000E058FD4FE491F0E0EE0FFF1FEE59FE4F3E
:100A4000859194919A8389831B861D861C86FE015D
:100A50003B968E010D5F1F4F1292E017F107E1F7F1
:100A6000DF91CF911F910F9108958EBD00000DB4BD
:100A700007FEFDCF8EB508953FB7F89480915D02D3
:100A800090915E02A0915F02B091600226B5A89B92
:100A900005C02F3F19F00196A11DB11D3FBFBA2F10
:100AA000A92F982F8827820F911DA11DB11DBC0170
:100AB000CD0142E0660F771F881F991F4A95D1F735
:100AC0000895009769F0FC0101900020E9F7319743
:100AD000AF01481B590BBC0187E791E00C948901D9
:100AE00080E090E00895CF93DF930E946105EC01D0
:100AF00082E591E00E9461058C0F9D1FDF91CF91EF
:100B000008958F929F92AF92BF920F931F93CF93AE
:100B1000DF93CDB7DEB7A1970FB6F894DEBF0FBE57
:100B2000CDBF19A2423008F44AE08E010F5D1F4F7D
:100B3000842E912CA12CB12CA50194010E94AA0F06
:100B4000E62FB901CA0101501109EA3014F4E05D41
:100B500001C0E95CD801EC93232B242B252B61F7F2
:100B6000C8010E946105A1960FB6F894DEBF0FBEC2
:100B7000CDBFDF91CF911F910F91BF90AF909F900C
:100B80008F900895EF92FF920F931F93CF93DF936F
:100B9000EC01E62E08E010E0FF24F39461E08F2DD5
:100BA0008E2109F460E0CE010E947103FF0C015018
:100BB0001109A1F7F894E981FA81918188818095E2
:100BC00089238183E981FA819281888180958923B3
:100BD00082837894DF91CF911F910F91FF90EF90D6
:100BE0000895AF92BF92CF92DF92EF92FF920F9350
:100BF0001F93CF93DF931F92CDB7DEB75C01D62E44
:100C0000E72EFC018585811105C0C5010E94A00366
:100C1000811106C0F50113861586148680E064C034
:100C200060EFC5010E94C20501E0F12CC12C11E06A
:100C3000C5010E944D03682FC50169830E944D03C1
:100C40006981613019F48130B9F433C04F2D50E01F
:100C500068131BC0F5018385181730F4E40FF51FE6
:100C60008381802349F402C0181731F060E0193005
:100C700058F4F501148708C0F501EF0DF11D8381CB
:100C8000802B838361E009C0C12EF501E40FF51FBD
:100C90009381802F809589238383C5010E947103EE
:100CA0001F5F000F11F4F39401E0F7E0FF1508F067
:100CB000BFCF113408F4AECFF501C386C11002C016
:100CC00081E08587F5018381882309F4A3CFD501CD
:100CD0001396ED2DFE2D9501255F3F4F8D9181934C
:100CE000A217B307D9F781E00F90DF91CF911F9141
:100CF0000F91FF90EF90DF90CF90BF90AF9008954D
:100D000090E0FC01E855FD4F3491FC01EC56FD4F9D
:100D10002491FC01E058FD4FE491EE2309F43BC01F
:100D2000332339F1333091F038F43130A9F03230D7
:100D300001F584B58F7D12C0373091F03830A1F0C5
:100D40003430B9F4809180008F7D03C080918000A1
:100D50008F77809380000DC084B58F7784BD09C0E4
:100D60008091B0008F7703C08091B0008F7D809319
:100D7000B000F0E0EE0FFF1FEA58FD4FA591B491CF
:100D80008FB7F894EC91611103C020952E2301C018
:100D90002E2B2C938FBF08959CB59F7D9CBD9CB539
:100DA000937F9CBD9CB59C7F9CBD9DB591609DBD76
:100DB000682F80911C020E94800680912E029091E3
:100DC0002F028230910538F0880F991F880F991FE4
:100DD00005970197F1F7089580E00C94CC061F93D6
:100DE000CF93DF931F92CDB7DEB789830E94EC06C5
:100DF00089818F710E9435058FEF0E943505182F6C
:100E000081E00E94CC06812F0F90DF91CF911F913E
:100E100008951F93CF93DF9300D0CDB7DEB76A83D9
:100E200089830E94EC0689818F7180620E9435055A
:100E3000182F6A81862F0E94350581E00E94CC061A
:100E4000812F0F900F90DF91CF911F9108950F93F5
:100E50001F93CF938C0186E00E94EF06C82FC77DB9
:100E60000230110531F4C0628BE990E0A0E0B0E0FF
:100E70000DC00130110529F085E590E0A0E0B0E05B
:100E800005C0C86081E490E0A0E0B0E080932A0251
:100E900090932B02A0932C02B0932D026C2F86E02E
:100EA0000E94090786E00E94EF0691E08C1390E013
:100EB000892FCF911F910F910895CF930E94EC0637
:100EC00081EE0E943505C82F81E00E94CC068C2F50
:100ED000CF910895CF93DF9390E0FC01EC56FD4F46
:100EE0002491FC01E058FD4F8491882361F190E04A
:100EF000880F991FFC01E459FD4FC591D491FC0165
:100F0000EA58FD4FA591B491611109C09FB7F894BB
:100F10008881209582238883EC912E230BC0623038
:100F200061F49FB7F8943881822F8095832388835A
:100F3000EC912E2B2C939FBF06C08FB7F894E881BD
:100F40002E2B28838FBFDF91CF9108958F929F9290
:100F5000AF92BF92CF92DF92EF92FF926B017C0132
:100F60000E943C054B015C01C114D104E104F10471
:100F7000F1F00E943C05DC01CB0188199909AA090E
:100F8000BB09883E9340A105B10570F321E0C21A68
:100F9000D108E108F10888EE880E83E0981EA11CB4
:100FA000B11CC114D104E104F10419F7DDCFFF90A5
:100FB000EF90DF90CF90BF90AF909F908F9008956B
:100FC0001F920F920FB60F9211242F933F938F937E
:100FD0009F93AF93BF938091590290915A02A09131
:100FE0005B02B0915C023091580223E0230F2D3751
:100FF00020F40196A11DB11D05C026E8230F02961D
:10100000A11DB11D209358028093590290935A025A
:10101000A0935B02B0935C0280915D0290915E02AE
:10102000A0915F02B09160020196A11DB11D809355
:101030005D0290935E02A0935F02B0936002BF9145
:10104000AF919F918F913F912F910F900FBE0F9075
:101050001F901895CF93DF93CDB7DEB7A4970FB647
:10106000F894DEBF0FBECDBF789484B5826084BD96
:1010700084B5816084BD85B5826085BD85B581609C
:1010800085BD80916E00816080936E00109281001A
:1010900080918100826080938100809181008160D5
:1010A0008093810080918000816080938000809196
:1010B000B10084608093B1008091B0008160809322
:1010C000B00080917A00846080937A0080917A00E9
:1010D000826080937A0080917A00816080937A00A8
:1010E00080917A00806880937A001092C100E0912C
:1010F0008701F091880182E08083E0918301F09183
:1011000084011082E0918501F091860180E1808365
:1011100010928F01E0918B01F0918C0186E0808329
:10112000E0918901F0918A01808180618083E09162
:101130008901F0918A01808188608083E091890132
:10114000F0918A01808180688083E0918901F0912B
:101150008A0180818F7D80838AE291E00E947305FD
:1011600085E492E00E94730482E392E00E9473049B
:1011700087E391E00E94730582E491E00E9461059B
:101180006091490270E080E090E04AE00E948105B1
:101190008AE491E00E9461056091360270E080E08F
:1011A00090E04AE00E94810582E591E00E9461059D
:1011B00080911A0290911B0220911C0230911D0215
:1011C0008217930719F061E00E946A0780911C0260
:1011D00090911D0220911A0230911B0228173907A5
:1011E00019F061E00E946A071FB7F89480917601B8
:1011F000811127C0EAE8F2E08491EEE9F2E09491EF
:10120000E82FF0E0EE0FFF1FE459FD4FA591B491D8
:10121000EC91E92321F461E08AE00E94800661E01C
:101220008AE00E946A078CB580618CBD8CB58064B1
:101230008CBD61E08DE00E946A0761E08BE00E9456
:101240006A07809176018F5F809376011FBF80913E
:101250001A0290911B0220911C0230911D028217EC
:10126000930719F060E00E94800681E00E94CC069E
:1012700065E070E080E090E00E94A6076CE080E00E
:101280000E9409076FE584E00E94090782E090E070
:101290000E942707882319F081E08093200286E0CE
:1012A0000E94EF0680E090E00E9427070E94EC0673
:1012B00080E50E94350583E70E94350581E00E94A4
:1012C000CC0660E08DE10E94090760E08CE10E949D
:1012D00009071092220260E787E00E9409076CE488
:1012E00085E00E9409070E94EC0682EE0E94350507
:1012F00081E00E94CC060E945D0780E00E94EF061C
:1013000081FD0BC0682F626080E00E94090765E0E4
:1013100070E080E090E00E94A60780E00E94EF0667
:10132000682F6E7F80E00E94090762E085E00E94DE
:10133000090781E18093210282E090E00E94270763
:1013400081EE8D8F80EF8E8F8F8F88EE88A389A39B
:101350001AA21BA21CA2D09028020E94EC068AE2CC
:101360000E9435058E01035E1F4F7801C02ED00EFE
:10137000DE1431F0F70181917F010E943505F8CF2D
:1013800081E00E94CC06F09028020E94EC0680E3E7
:101390000E943505FC0CF01631F0F80181918F01A7
:1013A0000E943505F8CF81E00E94CC0660912102B1
:1013B00081E10E94090785E591E00E947305E091B3
:1013C0003702F0913802138615861486DF011B96CA
:1013D000CF0103961E92A817B907E1F7BE016B5E15
:1013E0007F4FCF010E94F105882349F067E0CE01CD
:1013F00045960E9494029C8D891709F401C160E012
:1014000070E08EEF92EC609304017093050180937D
:1014100006019093070192E1C92E91E0D92E20E0B8
:10142000E22E21E0F22EF601A190B1906F011E8A0A
:101430001D8A188E1F8A1A8E198EA114B10421F1EB
:10144000F50101900020E9F731978F010A191B0976
:10145000B801CE0145960E94A3022D893E898111D3
:101460000DC02115310519F0C9010E947B101E8A9B
:101470001D8A1A8E198E188E1F8A06C01A8F098F20
:10148000B501C9010E94EB11F70161917191819140
:1014900091917F018E010F5F1F4F22E044E00E9477
:1014A000DE0B5C01FC0101900020E9F73197E81B9D
:1014B000F90B098D1A8D892BB1F03097A1F00E0F21
:1014C0001F1FB801CE0145960E94A302882359F040
:1014D0002D893E89898D9A8DB501820F931F0E94B7
:1014E000EB111A8F098F098D1A8D0F5F1F4FB801ED
:1014F000CE0145960E94A302882361F02D893E8982
:10150000898D9A8D6DE671E0820F931F0E94EB1119
:101510001A8F098F0D898E8810912102998C1915C7
:1015200008F4912E80912202811102C0191901C084
:1015300010E00E94EC0680EA0E943505A02EB82C2F
:10154000090D0A1531F0F50181915F010E94350501
:10155000F8CF112329F080E00E9435051150F9CF12
:1015600081E00E94CC0680911A0290911B0220918A
:101570001C0230911D028217930719F061E00E944E
:1015800080060E94EC068FEF0E943505182F81E03F
:101590000E94CC061073A9F380911A0290911B024D
:1015A00020911C0230911D028217930719F060E010
:1015B0000E94800660E787E00E94090784FD0E9480
:1015C0005D07498D5A8D6D897E8987E791E00E947C
:1015D000890182E591E00E9461058D899E890E94C2
:1015E0007B10FCE0EF16F1E0FF0609F01CCF68E984
:1015F0007AE380E090E00E94A6070E948902DFCE95
:10160000AE014F5F5F4FBE016B5E7F4F82E392E0A2
:101610000E94D603882309F446C068E0CE010196F3
:101620000E949402998589133EC0698148E0649FB5
:10163000B00111248A81282F30E0322F2227330F66
:10164000330F330F262B372B8D89803151F5688569
:1016500070E08F81AB01481B5109CA019695982F04
:101660008827979587950E94960F60517109207F72
:1016700053E0220F331F5A95E1F7620F731F613851
:1016800054EE75070CF4BBCE072E000C880B990B9B
:101690000E94660E20E030E040E05CE30E94A10E74
:1016A000B2CEB901ECCF60E874EEE9CFE7E7F1E044
:1016B0001382128288EE93E0A0E0B0E084839583E9
:1016C000A683B7838CE191E09183808385EC90E0E1
:1016D0009587848784EC90E09787868780EC90E0FC
:1016E000918B808B81EC90E0938B828B82EC90E0ED
:1016F000958B848B86EC90E0978B868B118E128E67
:10170000138E148E6AE080E992E00E94060569E07B
:1017100082E892E00E94060566E084E792E00E947B
:101720000605E5E4F2E023E932E0328B218B80E923
:1017300092E0968385831482108299E0918381E000
:1017400082838383E2E3F2E0328B218B42E852E032
:101750005683458314821082918382838383E1E6DA
:10176000F2E0328B218B24E732E03683258314822A
:101770001082918382838383E4E1F2E087E090E04A
:101780009783868388E090E091878087148680E243
:101790008587168685E0848B85E090E0A0E0B0E048
:1017A000828F938FA48FB58F8FEF9FEF918380836C
:1017B000938382839583848317860895EF920F9392
:1017C0001F93CF93DF93E80147FD02C034E001C0CF
:1017D00034E1E42F440FFF0BF7FF03C0F195E195CF
:1017E000F109E32E022F2E2FAE010E94FE0BCE0137
:1017F000DF91CF911F910F91EF9008954F925F92DB
:101800006F927F929F92AF92BF92CF92DF92EF92B0
:10181000FF920F931F93CF93DF93CDB7DEB7299736
:101820000FB6F894DEBF0FBECDBF6A01122FB02EE7
:101830002BE3201720F0FF24F394F00E02C0BCE34A
:10184000FB2E0F2D27E0AE014F5F5F4F0E948C0DE6
:10185000AC018981982F9970913031F0E1FC06C07C
:10186000E0FE06C090E205C09DE203C09BE201C01D
:1018700090E0EE2DE07183FF3CC0911102C083E047
:1018800001C084E0811718F4212F281B01C020E03B
:10189000E1110BC0F601822F30E2882319F0319359
:1018A0008150FBCFC20ED11C20E0992329F0D60134
:1018B0009C93F60131966F01C6010396E2FE0AC0C1
:1018C0003EE4D6013C9341E411964C931197129655
:1018D0003C9306C03EE6F601308341E64183328305
:1018E000FC01322F40E2332309F442C041933150CE
:1018F000FACF82FF44C0911102C083E001C084E0AE
:10190000811718F4212F281B01C020E0E1110BC022
:10191000F601822F30E2882319F031938150FBCFFA
:10192000C20ED11C20E0992329F0D6019C93F60128
:1019300031966F01C6010396E2FE0BC039E4D60171
:101940003C933EE411963C93119736E412963C93F7
:1019500007C039E6F60130833EE6318336E632834E
:10196000FC01322F40E2332319F041933150FBCF79
:10197000FC01E20FF11D10828EEF9FEFB7C0F1E086
:10198000911101C0F0E06F2F70E01416150624F4D9
:101990009A012F5F3F4F02C021E030E0260F371F32
:1019A000BB2029F06B2D70E06F5F7F4F02C060E0BD
:1019B00070E0260F371F612F70E0261737071CF4E1
:1019C000121B212F01C020E03E2D387159F4D601A1
:1019D000322F60E2332319F06D933150FBCFC20EEA
:1019E000D11C20E0FF2331F0D6019C93B6016F5F3C
:1019F0007F4F6B01E1110BC0F601922F30E3992369
:101A000019F031939150FBCFC20ED11C20E09F2DD5
:101A1000940F3A81782F7071A72E84FF03C0313361
:101A200009F49150191624F4993018F098E001C087
:101A300091E0E42F852F57FF02C0E0E080E06E2F99
:101A4000782FE0E0F0E0AEE29A2E3A01691A7108D0
:101A50002A01461A570A0B2D10E01195019511091C
:101A60006F3F8FEF780729F4D6019C92C60101964B
:101A70006C014617570784F0661677066CF47F01F1
:101A8000E40CF51CA1E0B0E0AC0FBD1FEA0EFB1E9C
:101A9000D7011196BC9002C090E3B92E6150710934
:101AA0003196C60101967C016017710724F0D601BA
:101AB000BC926C01D5CF6417750741F4363320F41E
:101AC000353321F4A11002C081E3B82EF601B082B3
:101AD000F701822F90E2882319F091938150FBCF78
:101AE000F701E20FF11D108280E090E029960FB619
:101AF000F894DEBF0FBECDBFDF91CF911F910F9144
:101B0000FF90EF90DF90CF90BF90AF909F907F902D
:101B10006F905F904F900895283008F027E03327AA
:101B2000DA01990F311D87FD9160009661057105FD
:101B300039F432602E5F3D9330E32A95E1F7089542
:101B40009F3F30F080387105610509F03C5F3C5FD4
:101B50003D93913008F08068911DDF93CF931F93E0
:101B60000F93FF92EF92192F987F9695E92F9695F4
:101B70009695E90FFF27EE53FF4F99273327EE2461
:101B8000FF24A701E70105900894079428F4360F75
:101B9000E71EF81E491F511D660F771F881F991FEA
:101BA0000694A1F70590079428F4E70EF81E491F44
:101BB000561FC11D770F881F991F661F0694A1F736
:101BC0000590079428F4F80E491F561FC71FD11D12
:101BD000880F991F661F771F0694A1F70590079439
:101BE00020F4490F561FC71FD81F990F661F771F74
:101BF000881F0694A9F784911095177041F0D69527
:101C0000C79557954795F794E7941A95C1F7E8E675
:101C1000F0E0689415901591359165919591059036
:101C20007FE27395E118F10A430B560BC90BD009FB
:101C3000C0F7E10CF11E431F561FC91FD01D7EF4D3
:101C4000703311F48A95E6CFE894015030F0080F14
:101C50000AF40027021708F4202F2395022F7A3365
:101C600028F079E37D932A95E9F710C07D932A95B2
:101C700089F6069497956795379517951794E11807
:101C8000F10A430B560BC90BD00998F023957E91AE
:101C900073957A3308F070E37C932013B8F77E9144
:101CA00070617D9330F0839571E37D9370E32A95A5
:101CB000E1F71124EF90FF900F911F91CF91DF91E9
:101CC000992787FD90950895E89409C097FB3EF405
:101CD00090958095709561957F4F8F4F9F4F992379
:101CE000A9F0F92F96E9BB279395F69587957795F7
:101CF0006795B795F111F8CFFAF4BB0F11F460FFB7
:101D00001BC06F5F7F4F8F4F9F4F16C0882311F00E
:101D100096E911C0772321F09EE8872F762F05C022
:101D2000662371F096E8862F70E060E02AF09A95BD
:101D3000660F771F881FDAF7880F9695879597F9B2
:101D400008950E94B40E0C94250F0E94170F38F0CE
:101D50000E941E0F20F0952311F00C940E0F0C948E
:101D6000140F11240C94590F0E94360F70F3959F95
:101D7000C1F3950F50E0551F629FF001729FBB2782
:101D8000F00DB11D639FAA27F00DB11DAA1F649F1E
:101D90006627B00DA11D661F829F2227B00DA11DD1
:101DA000621F739FB00DA11D621F839FA00D611D57
:101DB000221F749F3327A00D611D231F849F600D78
:101DC000211D822F762F6A2F11249F5750409AF0A1
:101DD000F1F088234AF0EE0FFF1FBB1F661F771F2D
:101DE000881F91505040A9F79E3F510580F00C94F8
:101DF0000E0F0C94590F5F3FE4F3983ED4F3869591
:101E000077956795B795F795E7959F5FC1F7FE2B97
:101E1000880F911D9695879597F9089597F99F6773
:101E200080E870E060E008959FEF80EC0895002462
:101E30000A941616170618060906089500240A942F
:101E400012161306140605060895092E0394000CB5
:101E500011F4882352F0BB0F40F4BF2B11F460FF44
:101E600004C06F5F7F4F8F4F9F4F089557FD90586D
:101E7000440F551F59F05F3F71F04795880F97FB4E
:101E8000991F61F09F3F79F0879508951216130608
:101E90001406551FF2CF4695F1DF08C01616170637
:101EA0001806991FF1CF869571056105089408956C
:101EB000E894BB2766277727CB0197F908952F92DF
:101EC0003F924F925F926F927F928F929F92AF92CA
:101ED000BF92CF92DF92EF92FF920F931F93CF9317
:101EE000DF93CDB7DEB7CA1BDB0B0FB6F894DEBFAE
:101EF0000FBECDBF09942A88398848885F846E84D4
:101F00007D848C849B84AA84B984C884DF80EE801D
:101F1000FD800C811B81AA81B981CE0FD11D0FB626
:101F2000F894DEBF0FBECDBFED01089597FB072EDD
:101F300016F4009407D077FD09D00E94CC0F07FC5F
:101F400005D03EF4909581959F4F089570956195C9
:101F50007F4F0895A1E21A2EAA1BBB1BFD010DC0E5
:101F6000AA1FBB1FEE1FFF1FA217B307E407F50749
:101F700020F0A21BB30BE40BF50B661F771F881F25
:101F8000991F1A9469F760957095809590959B01BB
:101F9000AC01BD01CF010895AA1BBB1B51E107C0D5
:101FA000AA1FBB1FA617B70710F0A61BB70B881FE9
:101FB000991F5A95A9F780959095BC01CD01089578
:101FC000EE0FFF1F0590F491E02D0994CF93DF935E
:101FD0008230910510F482E090E0E091A002F0914F
:101FE000A10220E030E0C0E0D0E0309711F1408164
:101FF000518148175907C0F04817590761F4828189
:102000009381209719F09B838A832BC09093A10220
:102010008093A00226C02115310519F042175307FD
:1020200018F49A01BE01DF01EF010280F381E02D77
:10203000DCCF2115310509F1281B390B243031057E
:1020400090F412968D919C9113976115710521F072
:10205000FB019383828304C09093A1028093A0022A
:10206000FD01329644C0FD01E20FF31F819391936D
:10207000225031092D933C933AC020919E02309119
:102080009F02232B41F420910E0130910F013093D8
:102090009F0220939E0220910C0130910D01211589
:1020A000310541F42DB73EB7409110015091110117
:1020B000241B350BE0919E02F0919F02E217F3077B
:1020C000A0F42E1B3F0B2817390778F0AC014E5FA8
:1020D0005F4F2417350748F04E0F5F1F50939F0244
:1020E00040939E028193919302C0E0E0F0E0CF0123
:1020F000DF91CF9108950F931F93CF93DF930097B4
:1021000009F48CC0FC013297138212820091A00264
:102110001091A1020115110581F420813181820FF6
:10212000931F20919E0230919F022817390779F55D
:10213000F0939F02E0939E0271C0D80140E050E00E
:10214000AE17BF0750F412962D913C911397AD0135
:102150002115310509F1D901F3CF9D01DA0133834E
:10216000228360817181860F971F8217930769F41C
:10217000EC0128813981260F371F2E5F3F4F3183B5
:1021800020838A819B8193838283452B29F4F0935A
:10219000A102E093A00242C01396FC93EE93129723
:1021A000ED01499159919E01240F351FE217F30764
:1021B00071F480819181840F951F029611969C93F2
:1021C0008E938281938113969C938E931297E0E075
:1021D000F0E0D80112968D919C911397009719F019
:1021E000F8018C01F6CF8D919C9198012E5F3F4FA5
:1021F000820F931F20919E0230919F02281739076A
:1022000069F4309729F41092A1021092A00202C042
:102210001382128210939F0200939E02DF91CF914E
:102220001F910F910895A0E0B0E0E9E1F1E10C9475
:10223000630FEC01009721F4CB010E94E60FB8C0B8
:10224000FC01E60FF71F9C0122503109E217F3074A
:1022500008F4ACC0D9010D911C911197061717070E
:10226000B0F00530110508F49FC0C8010497861727
:10227000970708F499C002501109061B170B019328
:1022800011936D937C93CF010E947B108DC05B01F5
:10229000A01AB10A4C01800E911EA091A002B0912B
:1022A000A10240E050E0E12CF12C109709F44AC063
:1022B000A815B905D1F56D907C901197630182E066
:1022C000C80ED11CCA14DB0480F1A3014A195B09B2
:1022D0006A0182E0C80ED11C1296BC901297139628
:1022E000AC91B5E0CB16D10440F0B282A383518308
:1022F0004083D9016D937C930AC00E5F1F4FC301C9
:10230000800F911FF90191838083EB2DFA2FE11447
:10231000F10431F0D7011396FC93EE93129744C069
:10232000F093A102E093A0023FC08D919C91119780
:102330004817590708F4AC017D0112960D90BC9125
:10234000A02DB3CF80919E0290919F028815990590
:10235000E1F446175707C8F480910C0190910D01E4
:10236000009741F48DB79EB7409110015091110133
:10237000841B950BE817F907C8F4F0939F02E093CC
:102380009E02F901718360830FC0CB010E94E60FAA
:102390007C01009759F0A801BE010E94E211CE0114
:1023A0000E947B10C70104C0CE0102C080E090E013
:1023B000CDB7DEB7EEE00C947F0F81E090E0F894AB
:1023C0000C94F211FB01DC0102C001900D9241500E
:1023D0005040D8F70895FB01DC0101900D920020D8
:0823E000E1F70895F894FFCF26
:1023E8000000FEC20000FEC20000FEC20000A20201
:1023F8008000610168016F0100000000200289016E
:10240800B8016702E901C701DB01646576696365A4
:1024180020626567696E0074656D70206265676922
:102428006E0074656D7031203D0074656D703220EA
:102438003D000D0A00726164696F20626567696E0C
:102448000074683A75703A0074683A6D643A0074BA
:06245800683A646E3A00D0
:00000001FF
